:100000000C945E000C9486000C9486000C94860080
:100010000C9486000C9486000C9486000C94860048
:100020000C9486000C9486000C9486000C94860038
:100030000C9486000C9486000C9486000C94860028
:100040000C94F9020C9486000C94C7020C94A10243
:100050000C9486000C9486000C9486000C94860008
:100060000C9486000C9486000000000024002700F9
:100070002A0000000000250028002B0004040404CE
:100080000404040402020202020203030303030342
:10009000010204081020408001020408102001021F
:1000A00004081020000000080002010000030407FB
:1000B000000000000000000043033F0511241FBEA4
:1000C000CFEFD8E0DEBFCDBF21E0A6E3B1E001C0B5
:1000D0001D92A63EB207E1F711E0A0E0B1E0EAE12F
:1000E000FFE002C005900D92A633B107D9F710E0EA
:1000F000CDE5D0E004C02197FE010E947F05CC35FC
:10010000D107C9F70E94B9030C9480070C94000032
:10011000E6EAF0E02491E2E9F0E09491EEE7F0E025
:10012000E491EE23C9F0222339F0233001F1A8F441
:10013000213019F1223029F1F0E0EE0FFF1FEE58C7
:10014000FF4FA591B4912FB7F894EC91811126C07F
:1001500090959E239C932FBF08952730A9F02830B7
:10016000C9F0243049F7209180002F7D03C02091F1
:1001700080002F7720938000DFCF24B52F7724BD18
:10018000DBCF24B52F7DFBCF2091B0002F772093BC
:10019000B000D2CF2091B0002F7DF9CF9E2BDACFC7
:1001A0000895AF92BF92CF92DF92EF92FF920F939A
:1001B0001F93CF93DF936C017B018B01040F151FFD
:1001C000EB015E01AE18BF08C017D10759F0699165
:1001D000D601ED91FC910190F081E02DC6010995C9
:1001E000892B79F7C501DF91CF911F910F91FF9076
:1001F000EF90DF90CF90BF90AF900895FC01538DAA
:10020000448D252F30E0842F90E0821B930B5417F0
:1002100010F0CF96089501970895FC01918D828D7D
:10022000981761F0A28DAE0FBF2FB11D5D968C9116
:10023000928D9F5F9F73928F90E008958FEF9FEF55
:1002400008952FB7F89480913B0190913C01A091C3
:100250003D01B0913E012FBF80934701909348012B
:10026000A0934901B0934A018FE391E00E940D01F0
:1002700097FF26C02FB7F89480913B0190913C01E5
:10028000A0913D01B0913E012FBF40914701509197
:1002900048016091490170914A01841B950BA60B9E
:1002A000B70B409143015091440160914501709119
:1002B000460184179507A607B707B0F28FEF9FEFA7
:1002C0000895FC01918D828D981731F0828DE80F91
:1002D000F11D858D90E008958FEF9FEF0895FC014B
:1002E000918D228D892F90E0805C9F4F821B910918
:1002F0008F73992708958FE391E00E946F0121E0A9
:10030000892B09F420E0822F089580E090E0892B6A
:1003100029F00E947B0181110C9400000895FC01DA
:10032000A48DA80FB92FB11DA35ABF4F2C91848D56
:1003300090E001968F739927848FA689B7892C93B3
:10034000A089B1898C91837080648C93938D848D06
:10035000981306C00288F389E02D80818F7D808309
:100360000895EF92FF920F931F93CF93DF93EC01C9
:1003700081E0888F9B8D8C8D98131AC0E889F9894C
:10038000808185FF15C09FB7F894EE89FF8960834F
:10039000E889F98980818370806480839FBF81E0D0
:1003A00090E0DF91CF911F910F91FF90EF90089512
:1003B000F62E0B8D10E00F5F1F4F0F731127E02EED
:1003C0008C8D8E110CC00FB607FCFACFE889F98925
:1003D000808185FFF5CFCE010E948F01F1CFEB8D9B
:1003E000EC0FFD2FF11DE35AFF4FF0829FB7F894F9
:1003F0000B8FEA89FB8980818062CFCFCF93DF9317
:10040000EC01888D8823B9F0AA89BB89E889F9892C
:100410008C9185FD03C0808186FD0DC00FB607FC61
:10042000F7CF8C9185FFF2CF808185FFEDCFCE0194
:100430000E948F01E9CFDF91CF9108953FB7F894E3
:100440008091370190913801A0913901B0913A0122
:1004500026B5A89B05C02F3F19F00196A11DB11D1F
:100460003FBFBA2FA92F982F8827BC01CD01620F5B
:10047000711D811D911D42E0660F771F881F991F16
:100480004A95D1F70895CF93DF93FC0101900020A6
:10049000E9F73197AF01481B590BBC018FE391E09D
:1004A0000E94D100EC0142E050E068E171E08FE38E
:1004B00091E00E94D1008C0F9D1FDF91CF91089594
:1004C0002091E0013091E101232B39F421E0FC017E
:1004D0008081882361F020E00AC0BC018091DC01AA
:1004E0009091DD010E94700721E0892BA1F7822FF6
:1004F00008950F931F93CF93DF93EC018881998127
:10050000009759F02A813B812617370730F081E0A8
:10051000DF91CF911F910F9108958B016F5F7F4FF6
:100520000E94AA06009759F0998388831B830A8347
:100530002C813D81232B59F7FC011082E8CF80E00C
:10054000E7CF1F920F920FB60F9211242F933F9374
:100550004F935F936F937F938F939F93AF93BF93CB
:10056000EF93FF938FE391E00E948F01FF91EF9152
:10057000BF91AF919F918F917F916F915F914F91BB
:100580003F912F910F900FBE0F901F9018951F92C3
:100590000F920FB60F9211242F938F939F93EF9387
:1005A000FF93E0914F01F09150018081E09155015E
:1005B000F091560182FD1BC09081809158018F5FA0
:1005C0008F7320915901821741F0E0915801F0E0BA
:1005D000E15CFE4F958F80935801FF91EF919F91C1
:1005E0008F912F910F900FBE0F901F9018958081C3
:1005F000F4CF1F920F920FB60F9211242F933F93B7
:100600008F939F93AF93BF9380913B0190913C0157
:10061000A0913D01B0913E013091360123E0230FBE
:100620002D3758F50196A11DB11D209336018093F9
:100630003B0190933C01A0933D01B0933E0180911A
:10064000370190913801A0913901B0913A0101969A
:10065000A11DB11D8093370190933801A0933901FA
:10066000B0933A01BF91AF919F918F913F912F919C
:100670000F900FBE0F901F90189526E8230F02963B
:10068000A11DB11DD2CF109242011092410188EEFE
:1006900093E0A0E0B0E08093430190934401A093E5
:1006A0004501B09346018AE091E090934001809328
:1006B0003F0185EC90E090934C0180934B0184ECDA
:1006C00090E090934E0180934D0180EC90E09093E8
:1006D000500180934F0181EC90E090935201809300
:1006E000510182EC90E0909354018093530186EC89
:1006F00090E090935601809355011092580110920A
:10070000590110925A0110925B011092DD01109272
:10071000DC011092DF011092DE011092E1011092D3
:10072000E00170E060E08CED91E00E9479022091A0
:10073000DC013091DD01811113C02115310519F063
:10074000C9010E9421061092DD011092DC01109275
:10075000E1011092E0011092DF011092DE01089594
:100760001092E1011092E0016AE171E0C9010C947C
:100770007907CF93DF93CDB7DEB728970FB6F894FC
:10078000DEBF0FBECDBF789484B5826084BD84B5D2
:10079000816084BD85B5826085BD85B5816085BD7C
:1007A00080916E00816080936E0010928100809134
:1007B00081008260809381008091810081608093BC
:1007C0008100809180008160809380008091B100E1
:1007D00084608093B1008091B00081608093B0000C
:1007E00080917A00846080937A0080917A008260A0
:1007F00080937A0080917A00816080937A00809162
:100800007A00806880937A001092C10081E00E9493
:100810008800E2E9F0E02491EEE7F0E0849188239B
:1008200099F090E0880F991FFC01E859FF4FA591BE
:10083000B491FC01EE58FF4F859194918FB7F894D5
:10084000EC91E22BEC938FBFE0914F01F0915001BE
:1008500082E08083E0914B01F0914C011082E091A5
:100860004D01F0914E0180E1808310925701E0919B
:100870005301F091540186E08083E0915101F091A1
:100880005201808180618083E0915101F091520199
:10089000808188608083E0915101F09152018081D4
:1008A00080688083E0915101F091520180818F7DB9
:1008B000808384EF91E0A0E0B0E0809343019093C7
:1008C0004401A0934501B093460190E0E92E90E0E9
:1008D000F92E1A8219821C821B821E821D8270E0F0
:1008E00060E0CE0101960E94790229813A8181114E
:1008F0002BC02115310519F0C9010E9421061A8269
:1009000019821E821D821C821B820E94210197FD7A
:1009100023C08F8318860D811E810F5F1F4FB80182
:10092000CE0101960E947902882379F329813A81C8
:100930008D819E81BE01695F7F4F820F931F0E9450
:1009400079071E830D83E1CF1E821D826AE171E06B
:10095000C9010E947907D9CF8091DC019091DD0116
:10096000009709F441C069817A8161157105D1F15F
:100970004091DE015091DF012D813E8142175307E6
:1009800088F10E9479078D819E819093E101809387
:10099000E0011E821D8289819A81009711F00E94D8
:1009A00021068BE191E00E946002811134C085E252
:1009B00091E00E94600281115FC08AE191E00E9493
:1009C0006002882319F080E00E948800E114F1049D
:1009D00009F47FCF0E947B01882309F47ACF0E941B
:1009E000000077CF0E94210689819A819093DD01D2
:1009F0008093DC018B819C819093DF018093DE01E9
:100A00008D819E819093E1018093E0011A82198289
:100A10001C821B82BECF8DE291E00E9443028FE3D5
:100A200091E00E94FE0181E00E9488000E941E0267
:100A30002B013C0184EF882E99249394A12CB12C96
:100A40000E941E026419750986099709683E734061
:100A500081059105A8F321E0821A9108A108B10847
:100A600088EE480E83E0581E611C711C81149104AD
:100A7000A104B10429F7A1CF81E391E0CECF809109
:100A8000DC019091DD01009711F00C94210608958E
:100A90002F923F924F925F926F927F928F929F928E
:100AA000AF92BF92CF92DF92EF92FF920F931F937C
:100AB000CF93DF93CDB7DEB7CA1BDB0B0FB6F8942D
:100AC000DEBF0FBECDBF09942A88398848885F846D
:100AD0006E847D848C849B84AA84B984C884DF80DE
:100AE000EE80FD800C811B81AA81B981CE0FD11DC2
:100AF0000FB6F894DEBF0FBECDBFED010895EE0F27
:100B0000FF1F0590F491E02D09940F931F93CF934D
:100B1000DF938230910510F482E090E0E091E401EF
:100B2000F091E50130E020E0B0E0A0E0309799F4EA
:100B30002115310509F44AC0281B390B2430310531
:100B4000D8F58A819B816115710589F1FB01938339
:100B50008283FE0111C040815181028113814817B7
:100B60005907E0F04817590799F4109761F0129669
:100B70000C93129713961C933296CF01DF91CF916D
:100B80001F910F9108950093E4011093E501F4CFB4
:100B90002115310551F04217530738F0A901DB0147
:100BA0009A01BD01DF01F801C1CFEF01F9CF9093A8
:100BB000E5018093E401CDCFFE01E20FF31F8193A5
:100BC00091932250310939832883D7CF2091E201B4
:100BD0003091E301232B41F4209102013091030174
:100BE0003093E3012093E201209100013091010153
:100BF0002115310541F42DB73EB7409104015091C4
:100C00000501241B350BE091E201F091E301E217AD
:100C1000F307A0F42E1B3F0B2817390778F0AC011F
:100C20004E5F5F4F2417350748F04E0F5F1F5093FC
:100C3000E3014093E201819391939FCFF0E0E0E0E4
:100C40009CCFCF93DF930097E9F0FC01329713829A
:100C50001282A091E401B091E501ED0130E020E0C5
:100C60001097A1F420813181820F931F2091E2011E
:100C70003091E3012817390709F061C0F093E301CF
:100C8000E093E201DF91CF910895EA01CE17DF07EB
:100C9000E8F54A815B819E0141155105B1F7E901F3
:100CA000FB83EA8349915991C40FD51FEC17FD07C7
:100CB00061F4808191810296840F951FE9019983E7
:100CC0008883828193819B838A83F0E0E0E012969F
:100CD0008D919C9113970097B9F52D913C911197A7
:100CE000CD010296820F931F2091E2013091E30122
:100CF0002817390739F6309751F51092E50110920F
:100D0000E401B093E301A093E201BCCFD383C2839B
:100D100040815181840F951FC817D90761F44E5F38
:100D20005F4F88819981480F591F518340838A8181
:100D30009B81938382832115310509F0B0CFF09315
:100D4000E501E093E4019ECFFD01DC01C0CF1382F9
:100D50001282D7CFB0E0A0E0E0EBF6E00C944A05B9
:100D60008C01009751F4CB010E9485058C01C801CC
:100D7000CDB7DEB7E0E10C946605FC01E60FF71F86
:100D80009C0122503109E217F30708F49DC0D901F4
:100D9000CD91DC911197C617D70798F0C530D105D2
:100DA00030F3CE0104978617970708F3C61BD70BBD
:100DB0002297C193D1936D937C93CF010E9421061A
:100DC000D6CF5B01AC1ABD0A4C018C0E9D1EA091C2
:100DD000E401B091E501512C412CF12CE12C10974C
:100DE00031F58091E2019091E3018815990509F0B0
:100DF0005CC04616570608F058C0809100019091DB
:100E00000101009741F48DB79EB7409104015091C4
:100E10000501841B950BE817F90708F055C0F093FE
:100E2000E301E093E201F90171836083A0CF8D912A
:100E30009C91119712966C90129713967C90139731
:100E4000A815B90559F56C0142E0C40ED11CCA14AD
:100E5000DB0420F1AC014A195B09DA0112961597FF
:100E600080F06282738251834083D9016D937C93B9
:100E7000E114F10471F0D7011396FC93EE931297ED
:100E800076CF22968C0F9D1FF90191838083F30109
:100E9000EFCFF093E501E093E40169CF48165906DE
:100EA00008F42C017D01D3019ACFCB010E94850566
:100EB0007C01009749F0AE01B8010E946707C801A4
:100EC0000E942106870153CF10E000E050CFFB01C4
:100ED000DC0102C001900D9241505040D8F70895B6
:100EE000FB01DC018D91019080190110D9F3990B60
:100EF0000895FB01DC0101900D920020E1F70895B7
:100F000010E0CDE5D0E004C0FE010E947F052196EF
:0A0F1000CE35D107C9F7F894FFCFE2
:100F1A000000E601800000000000B101D100FE00DF
:100F2A00FE016F010D0161010D0A0048454152544D
:100F3A00424541540056455253494F4E0041434B96
:060F4A0000313030000010
:00000001FF
